:100000000C945D000C9485000C9485000C94850084
:100010000C9485000C9485000C9485000C9485004C
:100020000C9485000C9485000C9485000C9485003C
:100030000C9485000C9485000C9485000C9485002C
:100040000C949E010C9485000C943D030C94790350
:100050000C9485000C9485000C9485000C9485000C
:100060000C9485000C94850000000007000201003C
:100070000003040600000000000000000102040864
:100080001020408001020408102001020408102002
:10009000040404040404040402020202020203032E
:1000A0000303030300000000250028002B000000CC
:1000B0000000240027002A00340411241FBECFEFC3
:1000C000D8E0DEBFCDBF11E0A0E0B1E0E0ECFBE0A6
:1000D00002C005900D92A231B107D9F711E0A2E15B
:1000E000B1E001C01D92A73CB107E1F710E0CAEBF7
:1000F000D0E004C02297FE010E94D205C83BD10780
:10010000C9F70E9494020C94DE050C940000CF9372
:1001100061E08DE00E942F0161E087E00E942F01E5
:1001200060E070E086E191E00E940201C82F61E08A
:1001300070E086E191E00E9402013C2F20E0282B34
:10014000309315012093140163E070E086E191E0A3
:100150000E940201C82F64E070E086E191E00E94F5
:1001600002013C2F20E0282B309313012093120131
:1001700040E855E260E070E080E291E0CF910C94BD
:10018000B40361E087E00C94670160E087E00C94C1
:1001900067018EE00C9473020E94C9002091120145
:1001A000309113012817390714F40C94C1002091E1
:1001B0001401309115018217930714F40C94C500B3
:1001C00008950E94CC0060911201709113014AE0E1
:1001D00050E080E291E00E9494050E94C9004AE04C
:1001E00050E0BC0180E291E00E94940561E071E082
:1001F00080E291E00E94D90468EE73E080E090E034
:100200000C941202CB010C94D605833069F028F4CB
:100210008130A1F0823011F514C08630B1F0873002
:10022000C1F08430D9F404C0809180008F7703C07E
:10023000809180008F7D80938000089584B58F77B2
:1002400002C084B58F7D84BD08958091B0008F7702
:1002500003C08091B0008F7D8093B0000895CF934C
:10026000DF9390E0FC01E458FF4F4491FC01E0571C
:10027000FF4F8491882341F190E0880F991FFC0182
:10028000E255FF4F25913491D9018C559F4FFC01C8
:1002900085919491C82FD92F9FB7F8948C916111B3
:1002A00006C0409584238C938881842308C06230E3
:1002B00041F4242F209582238C938881842B88837A
:1002C00002C0842B8C939FBFDF91CF9108950F9331
:1002D0001F93CF93DF931F92CDB7DEB7282F30E067
:1002E000F901E859FF4F8491F901E458FF4F149147
:1002F000F901E057FF4F04910023D1F0882321F04A
:1003000069830E9405016981E02FF0E0EE0FFF1F75
:10031000EC55FF4F85919491DC019FB7F8948C9137
:10032000611103C01095812301C0812B8C939FBF65
:100330000F90DF91CF911F910F9108951F920F920F
:100340000FB60F9211242F933F938F939F93AF93E8
:10035000BF938091170190911801A0911901B0915C
:100360001A0130911F01232F2D5F2D3720F40196A4
:10037000A11DB11D05C0232F2A570296A11DB11D35
:1003800020931F018093170190931801A0931901E6
:10039000B0931A0180911B0190911C01A0911D0145
:1003A000B0911E010196A11DB11D80931B01909378
:1003B0001C01A0931D01B0931E01BF91AF919F91AD
:1003C0008F913F912F910F900FBE0F901F90189516
:1003D0000F931F939FB7F89400911B0110911C017C
:1003E00020911D0130911E0186B5A89B06C08F3F4C
:1003F00021F00F5F1F4F2F4F3F4F9FBF322F212FF5
:10040000102F0027080F111D211D311D42E0000F84
:10041000111F221F331F4A95D1F7B801C9011F913F
:100420000F910895CF92DF92EF92FF92CF93DF93D7
:100430006B017C010E94E801EB010EC00E94E80103
:100440006C1B7D0B683E734038F081E0C81AD10800
:10045000E108F108C851DC4FC114D104E104F104F2
:1004600069F7DF91CF91FF90EF90DF90CF900895E3
:10047000789484B5826084BD84B5816084BD85B57F
:10048000826085BD85B5816085BDEEE6F0E0808146
:1004900081608083E1E8F0E0108280818260808367
:1004A000808181608083E0E8F0E0808181608083EA
:1004B000E1EBF0E0808184608083E0EBF0E080811C
:1004C00081608083EAE7F0E08081846080838081BE
:1004D0008260808380818160808380818068808366
:1004E0001092C10008958E3008F08E5087702091D0
:1004F000000140E4249F90011124822B80937C0012
:1005000080917A00806480937A0080917A0086FDE1
:10051000FCCF2091780030917900932F80E0AC01DE
:10052000422B9A01C90108950E9438020E94870057
:10053000C0E7D3E00E94E1002097E1F30E9470033E
:10054000F9CFFC0184859585FC01E05CFF4F20819B
:100550003181FC01EE5BFF4F80819181281B390BBB
:100560002F733327C9010895FC0184859585FC010B
:10057000E05CFF4F40815181FC01EE5BFF4F208129
:1005800031814217530741F00190F081E02DE80FCF
:10059000F91F208130E002C02FEF3FEFC90108951D
:1005A000FC0184859585FC01E05CFF4F4081518111
:1005B000FC01EE5BFF4F208131814217530781F030
:1005C000A081B181A80FB91F8C91208131812F5F4B
:1005D0003F4F2F73332731832083282F30E002C011
:1005E0002FEF3FEFC9010895FC0186859785FC0137
:1005F000E05CFF4FDC01AE5BBF4F408151812D912C
:100600003C91119742175307C1F70895CF93DF9399
:10061000FC0186859785DC01A05CBF4F2D913C9144
:1006200011972F5F3F4F2F733327EC01CE5BDF4FC6
:100630004881598124173507D9F30D90BC91A02D1D
:10064000A80FB91F6C93A685B785A05CBF4F119604
:100650003C932E93A689B7892C9181E090E0058C7C
:1006600002C0880F991F0A94E2F7282B2C9381E08F
:1006700090E0DF91CF91089508951F920F920FB6E9
:100680000F9211242F933F934F938F939F93EF9348
:10069000FF934091C6008091C3019091C4010196DF
:1006A0008F7399272091C5013091C6018217930756
:1006B00059F0E091C301F091C401ED57FE4F408322
:1006C0009093C4018093C301FF91EF919F918F910B
:1006D0004F913F912F910F900FBE0F901F90189543
:1006E00080E291E00E94A102892B11F00C943C035E
:1006F00008951F920F920FB60F9211242F933F93DC
:100700008F939F93EF93FF9320917F01309180010E
:1007100080918101909182012817390731F48091ED
:10072000C1008F7D8093C10014C0E0918101F091E0
:100730008201E15CFE4F20818091810190918201D4
:1007400001968F7399279093820180938101209362
:10075000C600FF91EF919F918F913F912F910F9044
:100760000FBE0F901F901895CF92DF92EF92FF92DD
:10077000CF93DF93EC016A017B01411581EE5807AD
:1007800061057105F9F0EC89FD8981E090E00E8C3E
:1007900002C0880F991F0A94E2F7808360E079E035
:1007A0008DE390E0A70196010E94AE05215031092A
:1007B000410951095695479537952795211580E1AF
:1007C000380798F0EC89FD89108260E874E88EE1C2
:1007D00090E0A70196010E94AE0521503109410920
:1007E00051095695479537952795E889F9893083BA
:1007F000EA89FB892083EE89FF89408181E090E0CE
:100800009C010A8C02C0220F331F0A94E2F7422B8C
:100810004083EE89FF8940819C010B8C02C0220F2E
:10082000331F0A94E2F7422B4083EE89FF8940810F
:100830009C010C8C02C0220F331F0A94E2F7422B5A
:100840004083EE89FF8920810D8C02C0880F991F9B
:100850000A94E2F7809582238083DF91CF91FF9005
:10086000EF90DF90CF900895109223011092220113
:1008700088EE93E0A0E0B0E08093240190932501FE
:10088000A0932601B093270186E091E09093210187
:100890008093200183E891E090932D0180932C01B7
:1008A0008FE391E090932F0180932E0185EC90E0EF
:1008B000909331018093300184EC90E09093330168
:1008C0008093320180EC90E0909335018093340165
:1008D00081EC90E0909337018093360186EC90E0B4
:1008E000909339018093380184E080933A0183E04A
:1008F00080933B0187E080933C0185E080933D013C
:1009000081E080933E010895CF92DF92EF92FF92B3
:100910000F931F93CF93DF936C01EB017A01E60EE7
:10092000F71E00E010E00BC06991D601ED91FC913B
:100930000190F081E02DC6010995080F191FCE1511
:10094000DF0591F7C801DF91CF911F910F91FF90C3
:10095000EF90DF90CF900895DB010D900020E9F734
:10096000AD0141505109461B570BDC01ED91FC9143
:100970000280F381E02D0994DC01ED91FC9101905E
:10098000F081E02D09940F931F93CF93DF93EC0137
:100990006DE00E94BC048C016AE0CE010E94BC04A0
:1009A0009C01200F311FC901DF91CF911F910F9141
:1009B00008950F931F93CF93DF93EC010E94AC0433
:1009C0008C01CE010E94C3049801280F391FC90170
:1009D000DF91CF911F910F9108954F925F926F9287
:1009E0007F929F92AF92BF92CF92DF92EF92FF924F
:1009F0000F931F93CF93DF93CDB7DEB7A1970FB6B9
:100A0000F894DEBF0FBECDBF5C016A017B01922E60
:100A100019A281E0821710F08AE0982E8E010F5DF6
:100A20001F4F492C512C612C712CC701B601A30119
:100A300092010E94AE058C2D929E801911240150C6
:100A400011098A3014F4805D01C0895CF80180834B
:100A500069017A01C114D104E104F10431F7B8014C
:100A6000C5010E94AC04A1960FB6F894DEBF0FBE7C
:100A7000CDBFDF91CF911F910F91FF90EF90DF904D
:100A8000CF90BF90AF909F907F906F905F904F906E
:100A90000895CF92DF92EF92FF920F931F93CF931F
:100AA000DF93EC016A017B012115310579F4E881BE
:100AB000F9810190F081E02D642FDF91CF911F919A
:100AC0000F91FF90EF90DF90CF9009942A3031057D
:100AD00019F477FD0EC02AE0B701A601CE01DF911F
:100AE000CF911F910F91FF90EF90DF90CF900C94DA
:100AF000ED046DE20E94BC048C0144275527BA0125
:100B00004C195D096E097F092AE0CE010E94ED04AF
:100B1000080F191FC801DF91CF911F910F91FF900E
:100B2000EF90DF90CF9008950F931F93CF93DF93B3
:100B3000EC019A01AB01662757FD6095762F0E9464
:100B400049058C01CE010E94C3049801280F391F6A
:100B5000C901DF91CF911F910F910895A1E21A2E43
:100B6000AA1BBB1BFD010DC0AA1FBB1FEE1FFF1F51
:100B7000A217B307E407F50720F0A21BB30BE40BA1
:100B8000F50B661F771F881F991F1A9469F76095E8
:100B90007095809590959B01AC01BD01CF010895A2
:100BA000EE0FFF1F0590F491E02D0994F999FECF07
:100BB00092BD81BDF89A992780B50895F894FFCF2A
:100BC00001000000000006038404A102D002B40268
:020BD000F4022D
:00000001FF
